:020000040800F2
:1000000000500020C51F00084D1C00084F1C0008B0
:10001000511C0008531C0008551C0008000000007B
:10002000000000000000000000000000571C000855
:10003000591C0008000000005B1C00085D1C000843
:100040000D2000080D2000080D2000080D200008DC
:100050000D2000080D2000080D2000080D200008CC
:100060000D2000080D2000080D2000080D200008BC
:100070000D2000080D2000080D2000080D200008AC
:100080000D2000080D2000080D2000080D2000089C
:100090000D2000080D2000080D2000080D2000088C
:1000A0000D2000080D2000080D2000080D2000087C
:1000B000651C00080D2000080D2000080D20000818
:1000C0000D2000080D2000080D2000080D2000085C
:1000D0000D2000080D2000080D2000080D2000084C
:1000E0000D2000080D2000080D2000080000000071
:1000F0000000000000000000000000000000000000
:0C01000000000000000000005FF808F1A3
:1001100081F0004102E000BF83F0004330B54FEAB8
:1001200041044FEA430594EA050F08BF90EA020F25
:100130001FBF54EA000C55EA020C7FEA645C7FEAB8
:10014000655C00F0E2804FEA5454D4EB5555B8BFDB
:100150006D420CDD2C4480EA020281EA030382EA4C
:10016000000083EA010180EA020281EA0303362DDE
:1001700088BF30BD11F0004F4FEA01314FF4801CB1
:100180004CEA113102D0404261EB410113F0004FC3
:100190004FEA03334CEA133302D0524263EB43037A
:1001A00094EA050F00F0A780A4F10104D5F1200E18
:1001B0000DDB02FA0EFC22FA05F2801841F1000173
:1001C00003FA0EF2801843FA05F359410EE0A5F147
:1001D00020050EF1200E012A03FA0EFC28BF4CF078
:1001E000020C43FA05F3C01851EBE37101F000452E
:1001F00007D54FF0000EDCF1000C7EEB00006EEB3B
:100200000101B1F5801F1BD3B1F5001F0CD34908C4
:100210005FEA30004FEA3C0C04F101044FEA44521B
:1002200012F5800F80F09A80BCF1004F08BF5FEAA2
:10023000500C50F1000041EB045141EA050130BD82
:100240005FEA4C0C404141EB0101013C28BFB1F594
:10025000801FE9D291F0000F04BF01460020B1FADF
:1002600081F308BF2033A3F10B03B3F120020CDAB2
:100270000C3208DD02F1140CC2F10C0201FA0CF090
:1002800021FA02F10CE002F11402D8BFC2F1200CF5
:1002900001FA02F120FA0CFCDCBF41EA0C019040AB
:1002A000E41AA2BF01EB0451294330BD6FEA0404F4
:1002B0001F3C1CDA0C340EDC04F11404C4F12002DF
:1002C00020FA04F001FA02F340EA030021FA04F3F1
:1002D00045EA030130BDC4F10C04C4F1200220FA48
:1002E00002F001FA04F340EA0300294630BD21FA86
:1002F00004F0294630BD94F0000F83F4801306BF4C
:1003000081F480110134013D4EE77FEA645C18BF3F
:100310007FEA655C29D094EA050F08BF90EA020FD6
:1003200005D054EA000C04BF1946104630BD91EACE
:10033000030F1EBF0021002030BD5FEA545C05D1D1
:100340004000494128BF41F0004130BD14F5800410
:100350003CBF01F5801130BD01F0004545F0FE4184
:1003600041F470014FF0000030BD7FEA645C1ABFB9
:10037000194610467FEA655C1CBF0B46024650EAF0
:10038000013406BF52EA033591EA030F41F400211C
:1003900030BD00BF90F0000F04BF0021704730B5A2
:1003A0004FF4806404F132044FF000054FF0000177
:1003B00050E700BF90F0000F04BF0021704730B538
:1003C0004FF4806404F1320410F0004548BF40420D
:1003D0004FF000013EE700BF42004FEAE2014FEA62
:1003E00031014FEA02701FBF12F07F4393F07F4F3D
:1003F00081F06051704732F07F4208BF704793F040
:100400007F4F04BF41F40021704730B54FF4607452
:1004100001F0004521F000411CE700BF50EA010255
:1004200008BF704730B54FF000050AE050EA0102FE
:1004300008BF704730B511F0004502D5404261EB6E
:1004400041014FF4806404F132045FEA915C3FF4AF
:10045000D8AE4FF003025FEADC0C18BF03325FEA4C
:10046000DC0C18BF033202EBDC02C2F1200300FAFD
:1004700003FC20FA02F001FA03FE40EA0E0021FA22
:1004800002F11444BDE600BF70B54FF0FF0C4CF410
:10049000E06C1CEA11541DBF1CEA135594EA0C0FC2
:1004A00095EA0C0F00F0DEF82C4481EA030621EAFD
:1004B0004C5123EA4C5350EA013518BF52EA033538
:1004C00041F4801143F4801338D0A0FB02CE4FF0EA
:1004D0000005E1FB02E506F00042E0FB03E54FF01A
:1004E0000006E1FB03569CF0000F18BF4EF0010E12
:1004F000A4F1FF04B6F5007F64F5407404D25FEA0E
:100500004E0E6D4146EB060642EAC62141EA5551C0
:100510004FEAC52040EA5E504FEACE2EB4F1FD0C02
:1005200088BFBCF5E06F1ED8BEF1004F08BF5FEA80
:10053000500E50F1000041EB045170BD06F0004632
:1005400046EA010140EA020081EA0301B4EB5C04DF
:10055000C2BFD4EB0C0541EA045170BD41F48011D7
:100560004FF0000E013C00F3AB8014F1360FDEBFFC
:10057000002001F0004170BDC4F10004203C35DAD8
:100580000C341BDC04F11404C4F1200500FA05F35B
:1005900020FA04F001FA05F240EA020001F00042FC
:1005A00021F0004110EBD37021FA04F642EB060172
:1005B0005EEA430E08BF20EAD37070BDC4F10C049C
:1005C000C4F1200500FA04F320FA05F001FA04F260
:1005D00040EA020001F0004110EBD37041F100014C
:1005E0005EEA430E08BF20EAD37070BDC4F1200557
:1005F00000FA05F24EEA020E20FA04F301FA05F2BF
:1006000043EA020321FA04F001F0004121FA04F266
:1006100020EA020000EBD3705EEA430E08BF20EA36
:10062000D37070BD94F0000F0FD101F00046400070
:1006300041EB010111F4801F08BF013CF7D041EAF2
:10064000060195F0000F18BF704703F000465200F6
:1006500043EB030313F4801F08BF013DF7D043EAC7
:100660000603704794EA0C0F0CEA135518BF95EA7D
:100670000C0F0CD050EA410618BF52EA4306D1D104
:1006800081EA030101F000414FF0000070BD50EA23
:10069000410606BF1046194652EA430619D094EAAD
:1006A0000C0F02D150EA013613D195EA0C0F05D197
:1006B00052EA03361CBF104619460AD181EA0301EB
:1006C00001F0004141F0FE4141F470014FF00000A3
:1006D00070BD41F0FE4141F4780170BD70B54FF03E
:1006E000FF0C4CF4E06C1CEA11541DBF1CEA1355BE
:1006F00094EA0C0F95EA0C0F00F0A7F8A4EB0504A0
:1007000081EA030E52EA03354FEA013100F0888096
:100710004FEA03334FF0805545EA131343EA12635F
:100720004FEA022245EA111545EA10654FEA002614
:100730000EF000419D4208BF964244F1FD0404F5CD
:10074000407402D25B084FEA3202B61A65EB030529
:100750005B084FEA32024FF480104FF4002CB6EBE6
:10076000020E75EB030E22BFB61A754640EA0C0066
:100770005B084FEA3202B6EB020E75EB030E22BFA6
:10078000B61A754640EA5C005B084FEA3202B6EBE7
:10079000020E75EB030E22BFB61A754640EA9C00A6
:1007A0005B084FEA3202B6EB020E75EB030E22BF76
:1007B000B61A754640EADC0055EA060E18D04FEA34
:1007C000051545EA16754FEA06164FEAC30343EAD4
:1007D00052734FEAC2025FEA1C1CC0D111F4801FA1
:1007E0000BD141EA00014FF000004FF0004CB6E79A
:1007F00011F4801F04BF01430020B4F1FD0C88BF39
:10080000BCF5E06F3FF6AFAEB5EB030C04BFB6EB43
:10081000020C5FEA500C50F1000041EB045170BD36
:100820000EF0004E4EEA113114EB5C04C2BFD4EB63
:100830000C0541EA045170BD41F480114FF0000EE7
:10084000013C90E645EA060E8DE60CEA135594EA63
:100850000C0F08BF95EA0C0F3FF43BAF94EA0C0F66
:100860000AD150EA01347FF434AF95EA0C0F7FF4DB
:1008700025AF104619462CE795EA0C0F06D152EA2F
:1008800003353FF4FDAE1046194622E750EA410613
:1008900018BF52EA43067FF4C5AE50EA41047FF424
:1008A0000DAF52EA43057FF4EBAE12E74FEA410287
:1008B00012F5001215D211D56FF47873B3EB6252B2
:1008C00012D94FEAC12343F0004343EA505311F0D9
:1008D000004F23FA02F018BF404270474FF000006B
:1008E000704750EA013005D111F0004008BF6FF0A9
:1008F000004070474FF00000704700BF4FEA4102D0
:10090000B2F1E04324BFB3F5001CDCF1FE5C0DD96D
:1009100001F0004C4FEAC0024CEA5070B2F1004FB7
:1009200040EB830008BF20F00100704711F0804FBA
:1009300021D113F13872BCBF01F00040704741F47F
:1009400080114FEA5252C2F11802C2F1200C10FA83
:100950000CF320FA02F018BF40F001004FEAC12367
:100960004FEAD32303FA0CFC40EA0C0023FA02F30B
:100970004FEA4303CCE77FEA625307D150EA0133E1
:100980001EBF4FF0FE4040F44000704701F00040B1
:1009900040F0FE4040F40000704700BF80F000408F
:1009A00002E000BF81F0004142001FBF5FEA410347
:1009B00092EA030F7FEA226C7FEA236C6AD04FEA47
:1009C0001262D2EB1363C1BFD2184140484041408C
:1009D000B8BF5B42192B88BF704710F0004F40F43E
:1009E000000020F07F4018BF404211F0004F41F45A
:1009F000000121F07F4118BF494292EA030F3FD026
:100A0000A2F1010241FA03FC10EB0C00C3F1200338
:100A100001FA03F100F0004302D5494260EB4000C7
:100A2000B0F5000F13D3B0F1807F06D340084FEA32
:100A3000310102F10102FE2A51D2B1F1004F40EB27
:100A4000C25008BF20F0010040EA0300704749008F
:100A500040EB0000013A28BFB0F5000FEDD2B0FA2C
:100A600080FCACF1080CB2EB0C0200FA0CF0AABF4F
:100A700000EBC25052421843BCBFD04018437047ED
:100A800092F0000F81F4000106BF80F400000132F3
:100A9000013BB5E74FEA41037FEA226C18BF7FEACA
:100AA000236C21D092EA030F04D092F0000F08BF0C
:100AB0000846704790EA010F1CBF0020704712F0F3
:100AC0007F4F04D1400028BF40F00040704712F132
:100AD00000723CBF00F50000704700F0004343F097
:100AE000FE4040F4000070477FEA226216BF0846CD
:100AF0007FEA23630146420206BF5FEA412390EA90
:100B0000010F40F4800070474FF0000304E000BF85
:100B100010F0004348BF40425FEA000C08BF704736
:100B200043F0964301464FF000001CE050EA0102FA
:100B300008BF70474FF000030AE000BF50EA01020F
:100B400008BF704711F0004302D5404261EB4101FC
:100B50005FEA010C02BF84460146002043F0B64321
:100B600008BFA3F18053A3F50003BCFA8CF2083A46
:100B7000A3EBC25310DB01FA02FC634400FA02FC4F
:100B8000C2F12002BCF1004F20FA02F243EB020056
:100B900008BF20F00100704702F1200201FA02FCB8
:100BA000C2F1200250EA4C0021FA02F243EB0200AB
:100BB00008BF20EADC7070474FF0FF0C1CEAD052EF
:100BC0001EBF1CEAD15392EA0C0F93EA0C0F6FD0B0
:100BD0001A4480EA010C400218BF5FEA41211ED08E
:100BE0004FF0006343EA501043EA5111A0FB01317A
:100BF0000CF00040B1F5000F3EBF490041EAD3714F
:100C00005B0040EA010062F17F02FD2A1DD8B3F1CA
:100C1000004F40EBC25008BF20F00100704790F039
:100C2000000F0CF0004C08BF49024CEA502040EA8B
:100C300051207F3AC2BFD2F1FF0340EAC250704751
:100C400040F400004FF00003013A5DDC12F1190F8F
:100C5000DCBF00F000407047C2F10002410021FA01
:100C600002F1C2F1200200FA02FC5FEA310040F119
:100C7000000053EA4C0308BF20EADC70704792F092
:100C8000000F00F0004C02BF400010F4000F013ACA
:100C9000F9D040EA0C0093F0000F01F0004C02BFC5
:100CA000490011F4000F013BF9D041EA0C018FE734
:100CB0000CEAD15392EA0C0F18BF93EA0C0F0AD03A
:100CC00030F0004C18BF31F0004CD8D180EA010060
:100CD00000F00040704790F0000F17BF90F0004FF9
:100CE000084691F0000F91F0004F14D092EA0C0FDB
:100CF00001D142020FD193EA0C0F03D14B0218BF6E
:100D0000084608D180EA010000F0004040F0FE40B3
:100D100040F40000704740F0FE4040F4400070474F
:100D20004FF0FF0C1CEAD0521EBF1CEAD15392EACE
:100D30000C0F93EA0C0F69D0A2EB030280EA010CBE
:100D400049024FEA402037D04FF0805343EA111157
:100D500043EA10130CF000408B4238BF5B0042F1B5
:100D60007D024FF4000C8B4224BF5B1A40EA0C005A
:100D7000B3EB510F24BFA3EB510340EA5C00B3EB8C
:100D8000910F24BFA3EB910340EA9C00B3EBD10F7A
:100D900024BFA3EBD10340EADC001B0118BF5FEACC
:100DA0001C1CE0D1FD2A3FF650AF8B4240EBC250F5
:100DB00008BF20F0010070470CF0004C4CEA5020B6
:100DC0007F32C2BFD2F1FF0340EAC250704740F405
:100DD00000004FF00003013A37E792F0000F00F0F7
:100DE000004C02BF400010F4000F013AF9D040EA75
:100DF0000C0093F0000F01F0004C02BF490011F409
:100E0000000F013BF9D041EA0C0195E70CEAD15300
:100E100092EA0C0F08D142027FF47DAF93EA0C0FE7
:100E20007FF470AF084676E793EA0C0F04D14B02CB
:100E30003FF44CAF08466EE730F0004C18BF31F07D
:100E4000004CCAD130F000427FF45CAF31F0004377
:100E50007FF43CAF5FE700BF4FF0FF3C06E000BF10
:100E60004FF0010C02E000BF4FF0010C4DF804CD33
:100E70004FEA40024FEA41037FEA226C18BF7FEA43
:100E8000236C11D001B052EA530C18BF90EA010F45
:100E900058BFB2EB030088BFC81738BF6FEAE170D4
:100EA00018BF40F0010070477FEA226C02D15FEA70
:100EB000402C05D17FEA236CE4D15FEA412CE1D0DC
:100EC0005DF8040B704700BF844608466146FFE7A3
:100ED0000FB5FFF7C9FF002848BF10F1000F0FBD85
:100EE0004DF808EDFFF7F4FF0CBF012000205DF87E
:100EF00008FB00BF4DF808EDFFF7EAFF34BF012003
:100F000000205DF808FB00BF4DF808EDFFF7E0FF9B
:100F100094BF012000205DF808FB00BF4DF808EDEC
:100F2000FFF7D2FF94BF012000205DF808FB00BF4F
:100F30004DF808EDFFF7C8FF34BF012000205DF831
:100F400008FB00BF844641EA000313F0030349D1C4
:100F5000403A23D30B6803604B6843608B6883601F
:100F6000CB68C3600B6903614B6943618B69836123
:100F7000CB69C3610B6A03624B6A43628B6A83620B
:100F8000CB6AC3620B6B03634B6B43638B6B8363F3
:100F9000CB6BC36340304031403ADBD230320BD3AD
:100FA0000B6803604B6843608B688360CB68C360E9
:100FB00010301031103AF3D20C3205D351F8043B03
:100FC00040F8043B043AF9D2043208D0D2071CBFDF
:100FD00011F8013B00F8013B01D30B880380604608
:100FE000704700BF082A13D38B07B1D010F003035A
:100FF000AED0C3F10403D21ADB071CBF11F8013BCA
:1010000000F8013BA4D331F8023B20F8023B9FE7F4
:10101000043AD9D3013A11F8013B00F8013BF9D267
:101020000B7803704B7843708B7883706046704701
:101030004FF0FF3C06E000BF4FF0010C02E000BFA4
:101040004FF0010C4DF804CD4FEA410C7FEA6C5C87
:101050004FEA430C18BF7FEA6C5C1BD001B050EA2A
:10106000410C0CBF52EA430C91EA030F02BF90EA15
:10107000020F0020704710F1000F91EA030F58BFD4
:10108000994208BF90422CBFD8176FEAE37040F036
:10109000010070474FEA410C7FEA6C5C02D150EAD4
:1010A000013C07D14FEA430C7FEA6C5CD6D152EA8F
:1010B000033CD3D05DF8040B704700BF8446104654
:1010C00062468C461946634600E000BF01B5FFF753
:1010D000B7FF002848BF10F1000F01BD4DF808ED23
:1010E000FFF7F4FF0CBF012000205DF808FB00BFF4
:1010F0004DF808EDFFF7EAFF34BF012000205DF84E
:1011000008FB00BF4DF808EDFFF7E0FF94BF01209A
:1011100000205DF808FB00BF4DF808EDFFF7CEFF9B
:1011200094BF012000205DF808FB00BF4DF808EDDA
:10113000FFF7C4FF34BF012000205DF808FB00BFAB
:101140004FEA410C7FEA6C5C02D150EA013C0AD1C3
:101150004FEA430C7FEA6C5C02D152EA033C02D1B5
:101160004FF0000070474FF0010070470348044BF8
:10117000834202D0034B03B118477047E4060020B6
:10118000E4060020000000000548064B1B1AD90F9A
:1011900001EBA301491002D0034B03B1184770477C
:1011A000E4060020E40600200000000010B5064C14
:1011B000237843B9FFF7DAFF044B13B10448AFF3C8
:1011C00000800123237010BDE40600200000000011
:1011D00014B0000808B5054B1BB105490548AFF32D
:1011E0000080BDE80840FFF7CFBF00BF000000004F
:1011F000E806002014B0000800B585B00023019374
:10120000029303931148124A026083600122027321
:1012100003754FF46021C1614360026101F08CF9F4
:1012200068B905230193012302930023039301A9C5
:10123000064800F0FDFF28B905B05DF804FB00F09A
:10124000D1F9EEE700F0CEF9F6E700BF0007002085
:101250000024014000B587B0002302930393049358
:1012600005930268114B9A4202D007B05DF804FB67
:1012700003F56C439A6942F400729A619A6902F428
:1012800000720092009A9A6942F004029A619B6986
:1012900003F004030193019B202302930323039390
:1012A00002A9034801F0C4FADFE700BF00240140AF
:1012B000000801400368586A00225A6200B2704771
:1012C000F0B589B004AD0024049405940694079405
:1012D000204B9A6942F020029A619A6902F020023A
:1012E0000192019A9A6942F004029A619A6902F0A5
:1012F00004020292029A9A6942F008029A619B697A
:1013000003F008030393039B134E22464FF47041EE
:10131000304601F097FB4FF4704304930127059783
:101320000694022307932946304601F081FA4FF4D0
:1013300008430493059406972946084801F078FA73
:1013400038230493059406972946304601F070FA35
:1013500009B0F0BD00100240000C0140000801403F
:1013600008B50B480B4B03600B4B436000238360B5
:10137000C3604FF48042026143618361C3610362D1
:1013800001F0F8FC00B908BD00F02CF9FBE700BF44
:101390003007002000540040801A060010B586B0C7
:1013A000002302930393049305930268154B9A421A
:1013B00001D006B010BD144CA36943F00803A3612B
:1013C000A36903F008030093009B4FF4407302935A
:1013D000122303930323059302A90C4801F028FA72
:1013E0000B4A536843F0E06343F002035360E36940
:1013F00043F40013E361E36903F400130193019BD9
:10140000D7E700BF0054004000100240000C01402C
:1014100000000140F8B5164C204600F0EDFF0C210D
:10142000204600F03FFE012440F6FF7600273D46AF
:1014300001E00134E4B2052C0ED80D4800F0F4FEB2
:101440000C4B23F8140080B20544B84200DD074677
:10145000B042EEDA0646ECE7E81B801BFEF7AAFF77
:101460000022054BFFF73AF9FFF720FA80B2F8BDEA
:1014700000070020840700200000084010B5044643
:101480000021FFF755FD18B314492046FFF732FD40
:1014900040B104F100401249FFF742FC1149FFF747
:1014A0008BFB16E00D492046FFF742FD90B10C4939
:1014B0002046FFF71FFD78B109492046FFF730FCB1
:1014C0000849FFF779FB01460648FFF76BFA00E091
:1014D000002010BD0020FCE70020FAE700200045B6
:1014E00000F07F450000B44310B504461049FFF7F3
:1014F0001FFD58B10F492046FFF7FCFC20B10D49F4
:101500002046FFF74FFA0446204610BD0A49204600
:10151000FFF7F0FC0028F7D008492046FFF708FD48
:101520000028F1D003492046FFF73EFA0446EBE7D6
:10153000000034430000B443000034C30000B4C3CF
:1015400038B51E4B834200D038BDFFF763FF1C4BFC
:1015500018601C48FFF7AEFE1B4B18601B4B1A6847
:1015600084181C602046FEF725FF0022184BFFF769
:10157000B5F8FFF7C3F90546164B186004F5077375
:10158000B3F5876F0CD9144A82FB04322244E31767
:10159000C3EB62234FF4077202FB13430B4A136041
:1015A000074B1868FFF7B0FAFFF768FF0B4B18609E
:1015B0002846FFF799FF0A4B1860C5E70C0D00207D
:1015C000B0070020C40C0020D4070020CC07002066
:1015D0000000F83FD007002049D6B9F2AC07002040
:1015E000C807002072B6FEE710B594B00AAC2822F6
:1015F0000021204602F0BEFF0023059306930793C7
:1016000008930993019302930393049301220A928E
:101610004FF480330B930E920222119212934FF4E7
:10162000E0131393204601F053FDC0B90F23059337
:1016300002210691002307934FF4806208920993D8
:1016400005A801F077FF60B9022301934FF400432E
:10165000039301A802F04AF828B914B010BDFFF7AF
:10166000C1FFFFF7BFFFFFF7BDFF000000B583B06C
:1016700000F0F4FCFFF7B8FFFFF722FEFFF770FE63
:1016800000F048FC00F08CFB00F054FBFFF7B4FDC9
:1016900000F0D2F80021224802F0DCFC214802F0E0
:1016A000C7F93C21204802F03FFD204C204600F0C5
:1016B000C7FF204600F0A0FE4FF0FF31204600F0AB
:1016C000F1FC002000F042F800F084F8184B186894
:1016D000FEF782FE02460B46164D1749284602F0D9
:1016E000B1FE164E0024009433462A462146204679
:1016F00000F011FA124B1868FEF76EFE02460B4618
:10170000104D1149284602F09DFE009433462A46AA
:101710001121204600F0FFF900F066F8D4E700BF81
:101720007C0C00200C0D0020C40C002000070020C1
:10173000AC070020B4070020C8B6000830B000088D
:10174000C8070020D8070020D4B6000838B5041E0A
:1017500013DB114D01224FF48051284601F072F93C
:1017600000224FF40051284601F06CF90B4B1B6826
:10177000002CB8BF64425C6338BD074D00224FF4B3
:101780008051284601F05EF901224FF400512846AD
:1017900001F058F9EAE700BF000C01407C0C002082
:1017A00000B583B002460B464FF0FF31009178211F
:1017B000024801F0BDFB03B05DF804FB30070020D8
:1017C00008B5034B587002211846FFF7E9FF08BD22
:1017D0007408002008B54FF480620021014802F02F
:1017E000C9FE08BD7808002038B5104B40221A7099
:1017F000002418E0A4F15000C0B2FFF7E1FF002080
:10180000FFF7DEFF1020FFF7DBFF094D80220949BB
:1018100001EBC4112846FFF795FB8121681EFFF7F5
:10182000BFFF0134E4B2072CE4D938BDF007002033
:10183000F10700207808002008B5AE20FFF7C0FFB0
:101840002020FFF7BDFF1020FFF7BAFFB020FFF701
:10185000B7FFC820FFF7B4FF0020FFF7B1FF10204B
:10186000FFF7AEFF4020FFF7ABFF8120FFF7A8FF97
:10187000DF20FFF7A5FFA120FFF7A2FFA620FFF7BB
:101880009FFFA820FFF79CFF3F20FFF799FFA420B0
:10189000FFF796FFD320FFF793FF0020FFF790FF9D
:1018A000D520FFF78DFFF020FFF78AFFD920FFF743
:1018B00087FF2220FFF784FFDA20FFF781FF122045
:1018C000FFF77EFFDB20FFF77BFF2020FFF778FF8D
:1018D0008D20FFF775FF1420FFF772FFFFF77AFFE7
:1018E000FFF782FFAF20FFF76BFF08BD30B59DF813
:1018F000104007282FD811F0800F2CD10CB1D24303
:10190000D2B29DF80C400134FF2505FA04F464B20C
:1019100052B244EA020CC3F1080E45FA0EF54CEA45
:10192000050C5FFA8CFC0C4D85F800C00B4B03EBEB
:10193000C010435C0CEA030C00F801C022EA040367
:101940006FF0FF0242FA0EF21340DBB22B704CEA4A
:10195000030C00F801C030BDEC070020780800201F
:101960002DE9F04383B0064690461C469DF828902A
:10197000CF0801F007052B44082B1EDDAA40CDF847
:101980000490072300932B46D2B201463846FFF756
:10199000ADFFC5F1080248FA02F22C44E4B2CDF8DA
:1019A0000490093CE4B200940023D2B23146781C82
:1019B000FFF79CFF03B0BDE8F083AA402C44E4B2DB
:1019C000CDF80490013CE4B200942B46D2B201461B
:1019D0003846FFF78BFFEDE72DE9F04182B0064670
:1019E00015469846CF0801F00704A240019307234B
:1019F00000932346D2B201463846FFF777FF14B969
:101A000002B0BDE8F081C4F1080345FA03F2CDF855
:101A10000480013CE4B200940023D2B23146781C29
:101A2000FFF764FFECE72DE9F04F85B0804689466B
:101A300092461E469DF838309DF83CB0DF0803F012
:101A4000070202920025039312E006FB045209EB01
:101A5000C40105EB08005B461AF80220C9B2C0B207
:101A6000FFF7BAFF0134E4B2BC42EED30135EDB268
:101A7000B54201D20024F7E7039B029ABAB106FBF4
:101A800007F700241D4610E03B191AF8032025F043
:101A90000701494404EB0800CDF800B0029BC9B22D
:101AA000C0B2FFF75DFF0134E4B2B442ECD305B03D
:101AB000BDE8F08F70B582B05D68203A1C7804F103
:101AC000070C4FEAEC0C5B7803FB0CFC9DF81860EC
:101AD000019600940CFB0252FFF7A5FF02B070BD07
:101AE000037890F90020002A0DDA03F0E002C02A02
:101AF0000BD003F0F002E02A09D003F0F803F02B3A
:101B000007D0002070470120704702207047032053
:101B10007047042070472DE9F04F87B0039004917F
:101B200093461E469DF84030059333780733DB100B
:101B300096F8019003FB09F95FFA89F909F10409A4
:101B40005FFA89F94FF0000A15E03378059A01929F
:101B5000009373782A1D0499039C2046FFF763FFC6
:101B600073782344DBB20393C2441FFA8AFA012339
:101B700000E00023E3B10BEB0A071BF80A30002B4F
:101B80003ED03846FFF7ACFF8046002838D000240E
:101B9000337AA342EDD9756809FB045542462946BC
:101BA000384602F0B9FC0028CFD00134E4B2EFE7A8
:101BB000B8F1010F11D0059B0093F368202204991E
:101BC000039C2046FFF776FFF3685B782344DBB283
:101BD0000393D0441FFA88FACDE71BF80A20059B2F
:101BE0000093F3680499039C2046FFF763FFF368B2
:101BF0005B782344DBB20393C2441FFA8AFABAE744
:101C000007B0BDE8F08F000082B00E4B9A6942F039
:101C100001029A619A6902F001020092009ADA695F
:101C200042F08052DA61DB6903F080530193019B3B
:101C3000054A536823F0E06343F00073536002B039
:101C4000704700BF0010024000000140FEE7FEE7C1
:101C5000FEE7FEE7FEE770477047704708B500F003
:101C60000FFA08BD08B5024801F019FF08BD00BF12
:101C70000C0D00200120704708B502F01DFD162351
:101C800003604FF0FF3008BD08B54FF0FF31FFF79C
:101C9000F3FFFEE770B50C461646002506E0AFF3ED
:101CA0000080214601F8010B01350C46B542F6DBF8
:101CB000304670BD70B50C461646002504E014F899
:101CC000010BAFF300800135B542F8DB304670BD43
:101CD0004FF0FF3070474FF400534B6000207047C7
:101CE000012070470020704710B503460C4A0D498B
:101CF0000D48006840B10C4800680344521A9342F2
:101D000006D8094A136010BD0748084C0460F2E782
:101D100002F0D2FC0C2303604FF0FF30F3E700BF6A
:101D20000050002000040000780C002070100020FB
:101D30007047000000B587B000230293039304931B
:101D400005930093019315484FF08042026041F6DD
:101D50001F42426083606322C2600361836101F0BD
:101D60008FFF90B94FF48053029302A90B4802F001
:101D7000E3F868B90023009301936946074802F02D
:101D800039FA40B907B05DF804FBFFF72BFCE9E72F
:101D9000FFF728FCEEE7FFF725FCF3E70C0D00202A
:101DA00010B58CB003AC24220021204602F0E2FBE7
:101DB0000023019302931248124A026001224260FA
:101DC00083604FF6FF71C160036183610323039356
:101DD0000592022308930992214601F0A9FF48B910
:101DE00000230193029301A9054802F003FA20B9E8
:101DF0000CB010BDFFF7F6FBF2E7FFF7F3FBF7E7D8
:101E0000C40C00200004004000B583B00368B3F1A7
:101E1000804F05D0124A934216D003B05DF804FB00
:101E200003F50433DA6942F00102DA61DB6903F099
:101E300001030093009B002211461C2000F0C6FC09
:101E40001C2000F0D3FCE8E7064BDA6942F00402FC
:101E5000DA61DB6903F004030193019BDDE700BF56
:101E6000000800400010024000B587B00023029334
:101E70000393049305930268104B9A4202D007B073
:101E80005DF804FB03F50333DA6942F00202DA611C
:101E9000DA6902F002020092009A9A6942F00402A2
:101EA0009A619B6903F004030193019BC023029391
:101EB00002A9034800F0BCFCE1E700BF00040040B9
:101EC0000008014000B587B00023029303930493F8
:101ED000059302680D4B9A4202D007B05DF804FBEF
:101EE00003F502339A6942F008029A619B6903F094
:101EF00008030193019B402302930223039305935C
:101F000002A9034800F094FCE7E700BF0008004086
:101F1000000C014000B58FB000230A930B930C9383
:101F20000D930893099301930293039304930593EC
:101F3000069307932148224A02604360836041F67A
:101F40001F42C2600361836101F09AFE30BB4FF40F
:101F500080530A930AA9194801F0EEFF08BB1748FD
:101F600001F0BAFE00BB00230893099308A91348A7
:101F700002F040F9D8B96023019341F65833029337
:101F800000220392059201A90C4801F05BFF88B979
:101F90000A48FFF797FF0FB05DF804FBFFF722FB3D
:101FA000D5E7FFF71FFBDAE7FFF71CFBDBE7FFF7DF
:101FB00019FBE0E7FFF716FBEAE700BF7C0C002007
:101FC00000080040FFF7B4FE0B480C490C4A002300
:101FD00002E0D458C4500433C4188C42F9D3094ADF
:101FE000094C002301E013600432A242FBD302F04B
:101FF00069FBFFF73BFB704700000020E406002070
:1020000020BB0008E40600206C100020FEE7000062
:1020100010B504460E4B1A784FF47A73B3FBF2F303
:102020000C4A1068B0FBF3F000F0EEFB68B90F2C1F
:1020300001D901200AE0002221464FF0FF3000F0D4
:10204000C5FB054B1C60002000E0012010BD00BF57
:1020500004000020000000200800002008B5074A06
:10206000136843F010031360032000F09DFB0F2062
:10207000FFF7CEFFFFF7C8FD002008BD002002409B
:10208000034A1168034B1B780B441360704700BF71
:10209000540D002004000020014B1868704700BF59
:1020A000540D0020F0B583B005460C460023019383
:1020B000FFF7F2FF2B689A6812F4807F23D107465E
:1020C0005A6812F4807F03D1DB6A13F4700F29D0B1
:1020D000504B1E68022001F095FBB6FBF0F62B6812
:1020E00019694D4A114236D1D96802F15C42114258
:1020F00031D11969494A114240D1DA68484B1A4234
:102100003ED0292341E0AB6A43F02003AB620023B9
:1021100085F82430012003B0F0BD2B681B6813F054
:10212000020F0FD02B681B6813F0020F4FD1B4F1D0
:10213000FF3FF7D0002CF0D0FFF7AEFFC31BA34248
:10214000F0D9EAE7AB6A43F00403AB62002385F8F9
:1021500024300320DFE71969304A114204D1D968DD
:1021600002F16E4211420DD019692E4A0A405AB945
:10217000DA682C4B13405BB1FC2306E0292304E012
:10218000142302E0542300E0FC2303FB06F607E0DF
:102190005423FAE7019BB34210D3019B013301930F
:1021A000019BB34213D2B4F1FF3FF6D0002CF1D023
:1021B000FFF772FFC01BA042EFD9EBE7AB6A43F019
:1021C0000403AB62002385F824300320A3E72B68C7
:1021D0006FF012021A60AB6A43F40073AB622B68B3
:1021E0009B6803F46023B3F5602F01D0002092E7D1
:1021F000287B60B9AB6A23F48073AB62AB6A13F4DB
:10220000805F88D1AB6A43F00103AB6283E70020B3
:1022100081E700BF00000020244992249224491243
:1022200092244900499224000368D86C704700004A
:1022300030B482B00022019290F82420012A00F0EC
:102240008F800346012280F824204A68062A2DD870
:102250000468606B02EB8202053A4FF01F0C0CFA27
:1022600002FC20EA0C000D6805FA02F202436263E8
:102270000A68092A38D91C68E06802EB42021E3A53
:102280004FF0070C0CFA02FC20EA0C008D6805FAEE
:1022900002F20243E2600A68103A012A34D90020AF
:1022A000002283F8242002B030BC70470C2A0DD8DD
:1022B0000568286B02EB8202233A1F24944020EA2F
:1022C00004000C68944020432863D1E70568E86A5D
:1022D00002EB8202413A1F24944020EA04000C6879
:1022E00094402043E862C3E71C68206902EB420285
:1022F0004FF0070C0CFA02FC20EA0C008D6805FA7E
:1023000002F202432261C6E71A681648824205D0EB
:102310009A6A42F020029A620120C1E7906810F4A4
:10232000000F1BD1906840F4000090600A68102AEA
:1023300001D00020B4E70C4A12680C49A1FB02123C
:10234000920C02EB82025200019202E0019A013AE1
:102350000192019A002AF9D10020A1E700209FE70D
:102360000220A0E7002401400000002083DE1B4380
:1023700030B583B00023019303689A6812F0010F0F
:1023800033D104469A6842F001029A60184B1B68E8
:10239000184AA2FB03239B0C019302E0019B013B23
:1023A0000193019B002BF9D1FFF776FE05462368C8
:1023B0009B6813F0010F16D1FFF76EFE431B022B33
:1023C000F5D923689B6813F0010FF0D1A36A43F09D
:1023D0001003A362E36A43F00103E362002384F87D
:1023E0002430012002E0002000E0002003B030BDD6
:1023F0000000002083DE1B4390F82430012B68D0BE
:1024000010B50446012380F82430FFF7B1FF0028FF
:102410005BD1A36A23F4407323F0010343F4807378
:10242000A36223682C4A934227D0A26A22F4801226
:10243000A2625A6812F4806F05D0A26A22F4405258
:1024400042F48052A262A26A12F4805F2BD0E26A48
:1024500022F00602E262002284F824206FF00202D9
:102460001A6023689A6802F46022B2F5602F1DD0CA
:102470009A6842F480129A602AE0A2F5806252685B
:1024800012F4702FD1D0A26A42F48012A262134AD1
:10249000526812F4806FD6D0A26A22F4405242F4FD
:1024A0008052A262CFE70022E262D4E70A4A934256
:1024B00004D09A6842F4A0029A6009E0A2F5806212
:1024C000526812F4702FD3D1F3E7002384F824303C
:1024D00010BD0220704700BF0028014000240140C9
:1024E00038B503689A6812F0010F01D1002038BD99
:1024F00004469A6822F001029A60FFF7CDFD054676
:1025000023689B6813F0010F13D0FFF7C5FD431B31
:10251000022BF5D923689B6813F0010FF0D0A36A52
:1025200043F01003A362E36A43F00103E362012076
:10253000DDE70020DBE7000000287BD070B5044613
:10254000836A002B4DD02046FFF7CAFFA36A13F021
:10255000100369D1002867D1A26A22F4885222F0C0
:10256000020242F00202A2626268E1690A43217B30
:1025700042EA4102A568B5F5807F02D0012D36D030
:102580001D46267D012E35D02668716821F46941EB
:10259000294371602568AE68274931401143A9601D
:1025A000A168B1F5807F01D0012902D12369013BE7
:1025B0001B052568E96A21F470010B43EB6223686F
:1025C00099681E4B0B409A4225D0A36A23F0120350
:1025D00043F01003A362E36A43F00103E3620120C6
:1025E00027E0C36280F82430FEF734FEABE74FF4F7
:1025F0008075C6E731B9A169013945EA413141F435
:102600000065C1E7A16A41F02001A162E16A41F0E1
:102610000101E162B8E70023E362A36A23F0030348
:1026200043F00103A36204E0A36A43F01003A36232
:10263000012070BD01207047FDF7E1FFFE0E1FFF76
:1026400070B582B00023019390F82430012B72D032
:102650000446012380F82430FFF742FF2046FFF7AD
:1026600087FE054628B1002384F82430284602B0AE
:1026700070BDA36A23F4885323F0020343F00203DE
:10268000A3622E4B1E68022001F0BCF8B6FBF0F6E8
:102690007600019602E0019B013B0193019B002B18
:1026A000F9D12268936843F008039360FFF7F4FCC4
:1026B000064623689A6812F0080F14D0FFF7ECFC66
:1026C000801B0A28F5D923689B6813F0080FF0D007
:1026D000A36A23F0120343F01003A362002384F8DB
:1026E00024300125C2E79A6842F004029A60FFF79D
:1026F000D3FC064623689B6813F0040F14D0FFF741
:10270000CBFC801B0A28F5D923689B6813F0040FC3
:10271000F0D0A36A23F0120343F01003A362002356
:1027200084F824300125A1E7A36A23F0030343F0D2
:102730000103A36297E7022598E700BF000000208D
:10274000002808DB0901C9B200F1604000F56140D2
:1027500080F80013704700F00F000901C9B2014B67
:102760001954704714ED00E000B500F00700C0F107
:10277000070CBCF1040F28BF4FF0040C031D062BFF
:102780000FD9C31E4FF0FF3E0EFA0CF021EA0001F4
:1027900099400EFA03FE22EA0E0241EA02005DF8B9
:1027A00004FB0023EEE70000074AD36823F4E0634C
:1027B0001B041B0C000200F4E060034343F0BF6302
:1027C00043F40033D360704700ED00E010B50446D9
:1027D000054BD868C0F30220FFF7C6FF014620462C
:1027E000FFF7AEFF10BD00BF00ED00E0002807DBE3
:1027F00000F01F02400901239340024A42F82030B2
:10280000704700BF00E100E00138B0F1807F0BD2DB
:102810004FF0E0235861054AF02182F82310002090
:10282000986107221A6170470120704700ED00E0AF
:1028300070B582B00024A4469EE07C4DAB4214D01B
:102840000CD8A5F58015AB420FD005F57025AB422D
:102850000BD0A5F58015AB421FD106E0744DAB42FD
:1028600003D005F58035AB4217D18B68A3B1012B9E
:102870000DD04261082410E0CC680EE0CC6804342E
:102880000BE0CC68083408E0CC680C3405E0026149
:10289000082402E0002400E00424BEF1FF0F37D832
:1028A00006464FEA8C0233680F25954023EA05035C
:1028B00004FA02F2134333604B6813F0805F59D07F
:1028C0005C4B9A6942F001029A619B6903F0010333
:1028D0000193019B4FEA9C02951C574B53F82560CE
:1028E0000CF00305AD000F23AB4026EA0306534B63
:1028F000984214D003F58063984279D003F5806341
:10290000984277D003F58063984206D0042307E00D
:10291000061DACF108029200C5E7032300E0002386
:10292000AB4033430232444D45F822304B6813F438
:10293000801F61D0424A936843EA0E0393604B685C
:1029400013F4001F5ED03E4AD36843EA0E03D360FF
:102950004B6813F4003F5BD0394A536843EA0E03D7
:1029600053604B6813F4803F58D0354A136843EAEC
:102970000E0313600CF1010C0B6833FA0CF253D008
:10298000012202FA0CF203EA020E32EA0303F1D149
:102990004B68122B3FF651AF122B3FF67EAF01A5CD
:1029A00055F823F06B2800087928000883280008D0
:1029B000952800089B2800089B2800089B280008F1
:1029C0009B2800089B2800089B2800089B280008DB
:1029D0009B2800089B2800089B2800089B280008CB
:1029E0009B2800089B2800087D28000889280008EB
:1029F000012395E7022393E7114A936823EA0E0324
:102A000093609CE70E4AD36823EA0E03D3609FE7E6
:102A10000B4A536823EA0E035360A2E7084A13687F
:102A200023EA0E031360A5E702B070BD0000221078
:102A30000000311000100240000001400008014079
:102A4000000401400AB10161704709040161704747
:102A500003685A6912F4806F01D1002070476FF447
:102A600080625A6100230363202280F83D2080F8B1
:102A70003E30026C42F00402026480F83C300120D7
:102A800070472DE9F04106460C46174698463BE054
:102A9000FFF702FB069BC01A404502D8B8F1000FB1
:102AA00032D1012D18D033689B6924EA03039BB20D
:102AB000B3FA83F35B099F4226D1002333632022BC
:102AC00086F83D2086F83E30326C42F020023264B7
:102AD00086F83C30012027E033685B6924EA030371
:102AE0009BB2B3FA83F35B09E5E733685B6924EAD9
:102AF000030C1FFA8CFCBCFA8CFC4FEA5C1C67458B
:102B000011D1B8F1FF3FC3D1C4F30745012DECD07B
:102B100033689B6924EA030C1FFA8CFCBCFA8CFC1A
:102B20004FEA5C1CEBE70020BDE8F0812DE9F8439B
:102B300005460E469046994653E01A6842F40072E4
:102B40001A602B686FF480625A6100232B63202285
:102B500085F83D2085F83E302A6C42F004022A6454
:102B600085F83C3001204AE0FFF796FAA0EB090017
:102B7000404502D8B8F1000F33D1012F17D02B6890
:102B80009B6926EA03039BB2003B18BF012343B3B2
:102B900000232B63202285F83D2085F83E302A6CE7
:102BA00042F020022A6485F83C30012027E02B689F
:102BB0005B6926EA03039BB2003B18BF0123E6E7EB
:102BC0002B689C6926EA0404A4B2003C18BF0124C7
:102BD000A4B12B685A6912F4806FAED1B8F1FF3FEF
:102BE000C2D1C6F30747012FEAD12B685C6926EAF8
:102BF0000404A4B2003C18BF0124E9E70020BDE8AA
:102C0000F8830000F0B583B004460D4616461F4613
:102C1000C36A082B0DD0012B0BD013F5803F08D0D1
:102C2000036B122B0AD10268136843F4807313609C
:102C300004E02268136843F48073136000973346FE
:102C400000224FF001112046FFF71BFF80B92369D6
:102C5000B3F5804F16D1236805F0FE051D613B4694
:102C6000324613492046FFF761FFF8B903B0F0BDC3
:102C700023681B6813F4807F02D04FF40073236431
:102C80000320F3E7EB11226803F0060343F0F0039F
:102C900013613B46324607492046FFF747FF18B904
:102CA0002368EDB21D61DAE70120DFE70120DDE7EF
:102CB000020001000800010070B504460D461646EA
:102CC00023685B6913F0800F21D12046FFF7C0FE17
:102CD000F8B9B5F1FF3FF3D0FFF7DEF9801BA8424A
:102CE00001D8002DECD123685B6913F0800FE7D188
:102CF00000232363202284F83D2084F83E30226C98
:102D000042F02002226484F83C30012000E00020E0
:102D100070BD0120FCE770B504460D4616462368D9
:102D20005B6913F0040F21D12046FFF791FEF8B93B
:102D3000B5F1FF3FF3D0FFF7AFF9801BA84201D8F0
:102D4000002DECD123685B6913F0040FE7D1002359
:102D50002363202284F83D2084F83E30226C42F028
:102D60002002226484F83C30012000E0002070BD85
:102D70000120FCE7002800F0CC8070B5044690F8F4
:102D80003D30002B77D0242384F83D30226813682F
:102D900023F0010313602268136843F400431360B7
:102DA0002268136823F40043136000F07FFC62681C
:102DB0005A4B9A4264D85A4B98428CBF0023012345
:102DC000002B40F0A8805749A1FB00318B0C2568EF
:102DD0006A6822F03F0242EA91426A6021680A6A08
:102DE00022F03F0266684D4DAE424FD80133134387
:102DF0000B622168CA6922F44F4222F0FF02656823
:102E0000464B9D424CD8431E6D00B3FBF5F3013396
:102E100040F6FC70034278D0C3F30B031A43CA6137
:102E200021680B6823F0C003E269206A0243134360
:102E30000B6021688B6823F4034323F0FF032269AE
:102E4000E068024313438B602168CB6823F0FF03E3
:102E50006269A06902431343CB602268136843F0A0
:102E60000103136000202064202384F83D30206398
:102E700084F83E0070BD80F83C30FEF78FFA82E7A0
:102E8000294B98428CBF0023012399E74FF4967594
:102E900005FB03F3254DA5FB03539B090133A6E76F
:102EA000A668BEB9431E05EB450CB3FBFCF301332A
:102EB000C3F30B03B3FA83F35B0943BBC6B9431EE9
:102EC00005EB4505B3FBF5F30133C3F30B0343F403
:102ED0000043A3E7431E05EB850C0CEB8C0CB3FB06
:102EE000FCF30133C3F30B03B3FA83F35B09E4E7A9
:102EF000431E05EB850505EB8505B3FBF5F30133B3
:102F0000C3F30B0343F4404388E7042386E701231C
:102F100084E7012070470120ACE700BFA0860100D4
:102F20007F841E0083DE1B43FF083D00D34D6210EB
:102F30002DE9F04385B004460F46904699460C9E15
:102F4000FFF7AAF894F83D10202904D0022738464C
:102F500005B0BDE8F08305460090192301224F49D2
:102F60002046FFF78EFD002840F0928094F83C3018
:102F7000012B00F08F80012384F83C3023681A680D
:102F800012F0010F03D11A6842F001021A602268A0
:102F9000136823F400631360212384F83D30102369
:102FA00084F83E3000232364C4F82480A4F82A90D7
:102FB000638D23853A4BE3622B46324639462046E1
:102FC000FFF720FE0746002866D1002303932368FD
:102FD0005A6903929B690393039B11E0236C042BB2
:102FE00001D00127B3E72268136843F4007313602C
:102FF000F7E72A4631462046FFF78DFE00282ED1FE
:10300000238D002B36D02A4631462046FFF754FE4A
:103010000028E3D1626A236812781A61606A431C4F
:103020006362618D89B2013989B26185238D013B6B
:103030009BB223852268516911F0040FD9D0002B6F
:10304000D7D043781361636A01336362638D9BB2A7
:10305000013B9BB26385238D013B2385C9E7236C2C
:10306000042B01D0012772E72268136843F4007330
:103070001360F7E72268136843F40073136020239A
:1030800084F83D30002384F83E3084F83C305EE71D
:1030900002275CE702275AE7012758E702001000E1
:1030A0000000FFFF82B0084B1B68084AA2FB032305
:1030B0005B0A00FB03F3019300BF019B5A1E0192C0
:1030C000002BF9D102B0704700000020D34D6210F0
:1030D000002800F0F18170B582B00446036813F057
:1030E000010F2CD0994B5B6803F00C03042B1DD00F
:1030F000964B5B6803F00C03082B12D06368B3F5A2
:10310000803F41D0002B55D103F1804303F50433B8
:103110001A6822F480321A601A6822F480221A6037
:1031200037E08A4B5B6813F4803FE7D0874B1B681E
:1031300013F4003F03D06368002B00F0BF812368C5
:1031400013F0020F75D0814B5B6813F00C0F5FD04A
:103150007E4B5B6803F00C03082B54D02369002BD3
:1031600000F08A807A4B01221A60FEF795FF05462F
:10317000764B1B6813F0020F75D1FEF78DFF401BD5
:103180000228F5D903209EE1704A136843F4803386
:103190001360636843B3FEF77FFF05466B4B1B6804
:1031A00013F4003FCBD1FEF777FF401B6428F5D91D
:1031B000032088E1B3F5A02F09D0644B1A6822F4EC
:1031C00080321A601A6822F480221A60E1E703F163
:1031D0008043A3F53C331A6842F480221A601A68CF
:1031E00042F480321A60D4E7FEF756FF0546574B8B
:1031F0001B6813F4003FA2D0FEF74EFF401B64286B
:10320000F5D903205FE1514B5B6813F4803FA5D1F2
:103210004E4B1B6813F0020F03D02369012B40F0C3
:103220004F814A4A136823F0F803616943EAC103F6
:103230001360236813F0080F33D0A369002B5CD010
:10324000434B0122C3F88024FEF726FF05463F4B7F
:103250005B6A13F0020F21D1FEF71EFF401B02280C
:10326000F5D903202FE1394A136823F0F803616987
:1032700043EAC1031360DCE7354B00221A60FEF716
:103280000BFF0546314B1B6813F0020FD1D0FEF740
:1032900003FF401B0228F5D9032014E10120FFF7AA
:1032A00001FF236813F0040F00F09680274BDB69C1
:1032B00013F0805F34D1254BDA6942F08052DA6135
:1032C000DB6903F080530193019B0125214B1B68AF
:1032D00013F4807F26D0E368012B3DD0002B53D11F
:1032E00003F1804303F504331A6A22F001021A62E3
:1032F0001A6A22F004021A6233E0154B0022C3F866
:103300008024FEF7C9FE0546104B5B6A13F0020FDE
:10331000C7D0FEF7C1FE401B0228F5D90320D2E03A
:103320000025D3E70B4A136843F480731360FEF75C
:10333000B3FE0646074B1B6813F4807FCBD1FEF724
:10334000ABFE801B6428F5D90320BCE000100240CE
:1033500000004242007000405F4A136A43F00103DC
:103360001362E36833B3FEF797FE06465A4B1B6AB7
:1033700013F0020F2FD1FEF78FFE801B41F288332E
:103380009842F3D903209EE0052B09D0524B1A6ACC
:1033900022F001021A621A6A22F004021A62E0E7BD
:1033A0004D4B1A6A42F004021A621A6A42F0010294
:1033B0001A62D6E7FEF770FE0646474B1B6A13F00B
:1033C000020F08D0FEF768FE801B41F28833984256
:1033D000F3D9032077E0E5B9E369002B72D03E4AC8
:1033E000526802F00C02082A56D0022B17D03B4B31
:1033F00000221A66FEF750FE0446374B1B6813F096
:10340000007F47D0FEF748FE001B0228F5D90320B5
:1034100059E0314AD36923F08053D361DCE72F4B65
:1034200000221A66FEF738FE05462B4B1B6813F088
:10343000007F06D0FEF730FE401B0228F5D903209E
:1034400041E0236AB3F5803F1AD023494B6823F447
:103450007413226A606A024313434B601F4B0122BC
:103460001A66FEF719FE04461B4B1B6813F0007F1B
:103470000ED1FEF711FE001B0228F5D9032022E031
:10348000154A536823F40033A1680B435360DCE70B
:10349000002018E0002016E0012B16D00E4B5B68D0
:1034A00003F48031226A914211D103F47013626AED
:1034B00093420ED1002006E001207047012002E077
:1034C000012000E0002002B070BD0120FBE70120D8
:1034D000F9E70120F7E700BF001002400000424278
:1034E0000F4B5B6803F00C02082A01D00D487047AF
:1034F000C3F383420C49885C13F4803F0BD0084B24
:103500005B68C3F34043094AD35C064A02FB00F000
:10351000B0FBF3F07047064B03FB00F0704700BFB1
:103520000010024000127A00A4B80008A0B80008F9
:1035300000093D00002800F0A08070B50D4604464B
:10354000524B1B6803F007038B420BD24F4A1368A0
:1035500023F007030B431360136803F007038B4248
:1035600040F08D80236813F0020F17D013F0040F82
:1035700004D0474A536843F4E0635360236813F070
:10358000080F04D0424A536843F460535360404AE2
:10359000536823F0F003A1680B435360236813F0D2
:1035A000010F31D06368012B20D0022B25D0384A7F
:1035B000126812F0020F64D035494A6822F0030203
:1035C00013434B60FEF768FD0646314B5B6803F022
:1035D0000C036268B3EB820F16D0FEF75DFD801B13
:1035E00041F288339842F0D9032045E0284A126816
:1035F00012F4003FE0D101203EE0254A126812F0AB
:10360000007FD9D1012037E0204B1B6803F007036E
:10361000AB420AD91D4A136823F007032B431360FA
:10362000136803F00703AB422DD1236813F0040F96
:1036300006D0174A536823F4E063E1680B435360F4
:10364000236813F0080F07D0114A536823F460531E
:10365000216943EAC1035360FFF742FF0C4B5B68EB
:10366000C3F303130B4AD35CD8400B4B18600B4BCE
:103670001868FEF7CDFC002070BD012070470120C6
:10368000FAE70120F8E70120F6E700BF002002403A
:103690000010024090B80008000000200800002040
:1036A000014B1868704700BF0000002008B5FFF705
:1036B000F7FF044B5B68C3F30223034AD35CD84093
:1036C00008BD00BF0010024088B8000808B5FFF729
:1036D000E7FF044B5B68C3F3C223034AD35CD840C3
:1036E00008BD00BF0010024088B8000870B582B065
:1036F0000446036813F0010F36D03F4BDB6913F02B
:10370000805F4AD13C4BDA6942F08052DA61DB6972
:1037100003F080530193019B0125384B1B6813F480
:10372000807F3CD0344B1B6A13F4407313D0626823
:1037300002F440729A420ED02F4A136A23F440706A
:103740002F490126C1F840640026C1F84064106288
:1037500013F0010F37D1284A136A23F440736168CC
:103760000B431362002D3FD1236813F0020F06D0E4
:10377000214A536823F44043A1680B4353602368F4
:1037800013F0100F35D01C4A536823F48003E1680E
:103790000B435360002002B070BD0025BDE7174AFF
:1037A000136843F480731360FEF776FC0646134BF0
:1037B0001B6813F4807FB5D1FEF76EFC801B642874
:1037C000F5D90320E7E7FEF767FC06460A4B1B6ABC
:1037D00013F0020FBFD1FEF75FFC801B41F288336C
:1037E0009842F3D90320D6E7D36923F08053D361FD
:1037F000BAE70020CFE700BF001002400070004091
:103800000000424208B502284ED0102803D00128FB
:1038100028D0002052E02B4B5A68186810F08070B6
:103820004CD0C2F383432849C85C12F4803F15D0C2
:10383000244B5B68C3F34043244AD25C244BB3FB64
:10384000F2F303FB00F01F4B5B6813F4800F35D1DC
:103850004000204BA3FB003040082FE01E4B03FB31
:1038600000F0F0E7174B1B6A40F202321A40B2F543
:10387000817F24D003F44073B3F5007F04D0B3F507
:10388000407F09D0002019E00E4A526A12F0020F60
:10389000F5D049F6404011E00A4B186810F40030AA
:1038A0000CD04FF2244009E0FFF710FF054B5B6896
:1038B000C3F3813301335B00B0FBF3F008BD4FF479
:1038C0000040FBE700100240B8B80008B4B8000898
:1038D00000127A00ABAAAAAA00093D0030B4026A1D
:1038E000036A23F0010303624568836923F07303CD
:1038F0000C681C4322F002028B6813430B4A90426F
:1039000006D0456084614A684263036230BC7047F8
:1039100023F00803CA681A4322F0040325F4407513
:103920004A692A438D691543EBE700BF002C01402B
:1039300030B4036A026A22F4807202624468C26987
:1039400022F073020D68154323F400738A6843EA7A
:1039500002230D4A904206D04460C5614A68C263A2
:10396000036230BC704723F40063CA6843EA022351
:1039700023F4806324F440544A6944EA02148A69B7
:1039800044EA0214E8E700BF002C014030B4036AA7
:10399000026A22F4805202624468C26922F4E6425A
:1039A0000D6842EA052223F400538D6843EA05338B
:1039B000074DA84206D04460C2614A6802640362AF
:1039C00030BC704724F480444D6944EA8514F2E722
:1039D000002C014010B4036A046A24F0010404625C
:1039E000846924F0F00C4CEA021223F00A030B4322
:1039F0008261036210BC704710B4036A046A24F049
:103A000010040462846924F4704C4CEA023223F0FE
:103A1000A00343EA01138261036210BC704783680C
:103A200023F070030B4343F00703836070470000EB
:103A300090F83D30012B27D1022380F83D300268F9
:103A4000D36843F00103D3600368114A934210D056
:103A5000B3F1804F0DD0A2F59432934209D002F514
:103A60008062934205D01A6842F001021A60002079
:103A700070479A6802F00702062A07D01A6842F0D7
:103A800001021A6000207047012070470020704733
:103A9000002C01407047704770477047704770B501
:103AA00004460368DE681D6915F0020F10D016F099
:103AB000020F0DD06FF002021A6101230377036831
:103AC0009B6913F0030F5ED0FFF7E6FF0023237717
:103AD00015F0040F12D016F0040F0FD023686FF00A
:103AE00004021A610223237723689B6913F4407F41
:103AF0004FD02046FFF7D0FF0023237715F0080FA3
:103B000012D016F0080F0FD023686FF008021A6168
:103B1000042323772368DB6913F0030F40D020468A
:103B2000FFF7BAFF0023237715F0100F12D016F01D
:103B3000100F0FD023686FF010021A61082323774B
:103B40002368DB6913F4407F31D02046FFF7A4FFE0
:103B50000023237715F0010F02D016F0010F2DD1AD
:103B600015F0800F02D016F0800F2FD115F0400F06
:103B700002D016F0400F31D115F0200F02D016F010
:103B8000200F33D170BDFFF786FF2046FFF785FF7A
:103B90009CE72046FFF77FFF2046FFF77EFFABE75D
:103BA0002046FFF778FF2046FFF777FFBAE7204669
:103BB000FFF771FF2046FFF770FFC9E723686FF03A
:103BC00001021A612046FDF7BBFCC9E723686FF0CC
:103BD00080021A61204600F044FBC7E723686FF0BB
:103BE00040021A612046FFF759FFC5E723686FF0CE
:103BF00020021A61204600F033FBC3E703681F4A26
:103C000090420AD0B0F1804F07D0A2F59432904292
:103C100003D002F58062904203D123F070034A681A
:103C20001343164A90420AD0B0F1804F07D0A2F554
:103C30009432904203D002F58062904203D123F483
:103C40004073CA68134323F080034A691343036037
:103C50008B68C3620B688362084B98420AD00123C9
:103C60004361036913F0010F03D0036923F00103DB
:103C7000036170470B690363F1E700BF002C01404B
:103C800040B310B5044690F83D30F3B1022384F8F8
:103C90003D30214651F8040BFFF7B0FF012384F8B3
:103CA000463084F83E3084F83F3084F8403084F861
:103CB000413084F8423084F8433084F8443084F84A
:103CC000453084F83D30002010BD80F83C30FEF7D0
:103CD0009BF8DBE70120704740B310B5044690F82D
:103CE0003D30F3B1022384F83D30214651F8040BF6
:103CF000FFF784FF012384F8463084F83E3084F8CF
:103D00003F3084F8403084F8413084F8423084F801
:103D1000433084F8443084F8453084F83D30002046
:103D200010BD80F83C30FFF7B5FEDBE7012070479F
:103D3000002856D070B50D46044690F83D30002B53
:103D40004AD0022384F83D302268936823F48043EC
:103D500023F007039360214651F8040BFFF74EFF51
:103D600021688B688A690E6A2868184322F44072B9
:103D700022F00302AB68D5F818C043EA0C231343C2
:103D800023F47C4323F0FC03EA68D5F81CC042EA24
:103D90000C221A432B6A1B03D5F810C043EA0C13FC
:103DA000134326F022066A686D6942EA051232431F
:103DB000886021688B6123681A62012384F8463089
:103DC00084F83E3084F83F3084F8423084F8433041
:103DD00084F83D30002070BD80F83C30FEF744F898
:103DE000AFE701207047000030B4036A026A22F096
:103DF000100202624468826922F4E6420D6842EAD7
:103E0000052223F020038D6843EA05130C4DA842D8
:103E100006D0446082614A688263036230BC7047A6
:103E200023F08003CD6843EA051323F0400324F414
:103E300040644D6944EA85048D6944EA8504E8E7F5
:103E4000002C014038B590F83C30012B66D0044678
:103E50000D46012380F83C300C2A5AD8DFE802F0E6
:103E6000075959591B595959305959594400006833
:103E7000FFF734FD2268936943F0080393612268D9
:103E8000936923F0040393612268936929690B43C2
:103E9000936100203EE00068FFF7A6FF2268936967
:103EA00043F4006393612268936923F48063936110
:103EB00022689369296943EA01239361002029E07C
:103EC0000068FFF735FD2268D36943F00803D3612A
:103ED0002268D36923F00403D3612268D369296976
:103EE0000B43D361002015E00068FFF74FFD226807
:103EF000D36943F40063D3612268D36923F48063F8
:103F0000D3612268D369296943EA0123D361002080
:103F100000E00120002384F83C3038BD0220FCE79B
:103F200010B4846824F47F4C42EA03220A4342EA34
:103F30000C02826010BC704790F83C30012B78D0A6
:103F400010B50446012380F83C30022380F83D3050
:103F50000268936823F47F4323F0770393600B6830
:103F6000602B4CD023D8402B54D011D8202B03D019
:103F70000AD80BB1102B05D119462068FFF74FFD69
:103F8000002028E0012026E0302BF5D0012022E09F
:103F9000502B0AD1CA6849680068FFF71BFD502101
:103FA0002068FFF73CFD002015E0012013E0B3F589
:103FB000805F3AD0B3F5005F14D0702B37D1CB6857
:103FC0004A6889680068FFF7ABFF2268936843F08E
:103FD000770393600020012384F83D30002384F8A8
:103FE0003C3010BDCB684A6889680068FFF798FFCD
:103FF0002268936843F4804393600020EBE7CA682B
:1040000049680068FFF7F8FC60212068FFF707FDAA
:104010000020E0E7CA6849680068FFF7DBFC402140
:104020002068FFF7FCFC0020D5E70020D3E7012043
:10403000D1E70220704701F01F014FF0010C0CFA8C
:1040400001FC036A23EA0C030362036A8A401343F8
:104050000362704710B50446084649BB94F83E30E9
:10406000013B18BF0123002B58D1002836D1022371
:1040700084F83E30012201462068FFF7DCFF236808
:10408000284A93423AD02368264A93423BD0B3F160
:10409000804F38D0A2F59432934234D002F580623A
:1040A000934230D01A6842F001021A60002036E0D4
:1040B000042907D008290BD094F84130013B18BFE0
:1040C0000123D0E794F83F30013B18BF0123CAE732
:1040D00094F84030013B18BF0123C4E7042805D001
:1040E000082807D0022384F84130C3E7022384F86C
:1040F0003F30BFE7022384F84030BBE75A6C42F4FC
:1041000000425A64BFE79A6802F00702062A07D005
:104110001A6842F001021A60002000E0012010BD80
:104120000020FCE7002C014038B5044690F83E0022
:10413000C0B294F83F3094F84220D2B294F843C011
:104140000D46B1B9012849D1012A48D1022384F88A
:104150003E3084F842307DB3042D39D00122002155
:104160002068FFF768FF012204212068FFF763FF42
:1041700027E0DBB25FFA8CFC042912D0012833D18E
:10418000012B2CD1012A31D1BCF1010F30D10223F6
:1041900084F83E3084F83F3084F8423084F843306D
:1041A000D9E7012B1CD1BCF1010F1BD1022384F8EC
:1041B0003F3084F84330CEE7012200212068FFF72A
:1041C0003AFF2268136843F001031360002006E001
:1041D000012204212068FFF72EFFF2E7012038BDFD
:1041E0000120FCE71846FAE70120F8E71846F6E751
:1041F0001046F4E790F83C20012A2CD010B4034676
:10420000012280F83C20022280F83D20026850689C
:10421000946820F0700C086840EA0C0050601A683E
:104220000E4882420AD0B2F1804F07D0A0F59430F8
:10423000824203D000F58060824204D124F08004E1
:10424000496821439160012283F83D20002083F8D2
:104250003C0010BC70470220704700BF002C01409A
:1042600070477047024A0349034800F0C9B800BFCD
:104270000C00002021720008200000200C4B416837
:1042800010B59942044601D002F0CAFFA168094B5B
:10429000994202D0204602F0C3FFE168064B9942E2
:1042A00004D02046BDE8104002F0BABF10BD00BFE8
:1042B000580D0020C00D0020280E00202DE9F843E5
:1042C00000250423304C314A3149DFF8C890DFF82B
:1042D000C880324F324E116004F15C00294608223A
:1042E000C4E90335C4E90055C4E90555A560656610
:1042F00000F040F904F15800C4E90749C4E909870E
:10430000E66200F007FA274B2946082204F1C400B0
:104310006367C4E91A55C4E91E552567C4F8CC5033
:10432000C4F8805000F026F904F1680304F1C000DD
:10433000C4F88430C4E92298C4E9247600F0EAF98C
:10434000194B294604F596700822C4F8DC30C4E9FC
:104350003455C4E93855C4F8D850C4F83451C4F8B9
:10436000E85000F007F904F1D003C4E93D87C4F830
:10437000F09004F59470C4F8FC60C4F8EC30BDE82B
:10438000F84300F0C7B900BF580D0020900E002080
:104390006542000889440008AD440008ED44000867
:1043A00011450008090001001200020010B5044682
:1043B0000A4800F0B3F9636B23B9094B094A1B683B
:1043C000626323B1BDE81040044800F0A9B9FFF7CB
:1043D00075FFBDE81040014800F0A2B9A00E002012
:1043E000900E00207D420008014800F097B900BF00
:1043F000A00E0020014800F093B900BFA00E0020DD
:104400002DE9F8434FF0000980460F461646D6E9DD
:104410000154013D10D4A389012B08D9B4F90E3001
:10442000013304D021464046B84749EA0009013D1E
:104430006B1C04F16804EED13668002EE7D14846C3
:10444000BDE8F8830EB470B504466FF00046002551
:104450009DB00B4A21AB0B49106853F8042B059112
:1044600002A9CDE90134049607961B95069400F045
:1044700083FD029B1D701DB0BDE8704003B0704706
:10448000180000200802FFFF10B50C46B1F90E100D
:1044900000F0E6F8002803DB236D0344236510BD1C
:1044A000A38923F48053A38110BD00BF2DE9F041FF
:1044B0000C46B1F90C101F46CB05054616460BD429
:1044C00021F48051A1813B4632462846B4F90E10B2
:1044D000BDE8F04100F0DAB8B4F90E100223002272
:1044E00000F0A8F8B4F90C10EAE700BF10B50C46CC
:1044F000B1F90E1000F09EF8B4F90C30421C0EBF5A
:1045000023F4805343F480532065A38110BD00BF82
:10451000B1F90E1000F07CB8032A30B412D941EA88
:104520000004A40784460B4621D11946604653F87F
:10453000044B5CF8045BA54219D1043A032AF4D871
:1045400060461946541E7AB1431E0139021901E032
:104550009A4209D013F8010F11F801CF6045F7D046
:10456000A0EB0C0030BC7047002030BC7047541EDC
:10457000EAE700BF830730B546D08446841805E0DB
:10458000634603F8011B9D0703D09C46A445F7D161
:1045900030BD013A0244A2EB0C02032A29D9CCB265
:1045A00004EB04240F2A04EB04442FD9A2F1100CCD
:1045B0002CF00F0C03F11005AC44C3E90044C3E92F
:1045C000024410336345F8D112F00C0F02F00F0EC5
:1045D00018D01A462EF0030C9C44AEF1040542F8A4
:1045E000044B6245FBD125F0030404330EF00302B3
:1045F0002344002ACCD0C9B21A4403F8011B9342C9
:10460000FBD130BD7246F4E70346C6E79646E0E7C5
:10461000002238B5064D044608462A60FDF758FBCF
:10462000431C00D038BD2B68002BFBD0236038BD65
:10463000940E002038B50C46114600228446074DE2
:1046400020462A601A466446FDF74CFB431C00D006
:1046500038BD2B68002BFBD0236038BD940E0020A2
:1046600038B50C46114600228446074D20462A6084
:104670001A466446FDF70EFB431C00D038BD2B687C
:10468000002BFBD0236038BD940E002038B50C46BB
:10469000114600228446074D20462A601A46644689
:1046A000FDF708FB431C00D038BD2B68002BFBD066
:1046B000236038BD940E0020014B1868704700BF7E
:1046C0001800002070B50F4B0F4DAB42A3EB050651
:1046D00007D00024B61055F8043B01349847A64291
:1046E000F9D806F097FC094D094B5E1BAB424FEA27
:1046F000A60606D0002455F8043B01349847A6428C
:10470000F9D870BD14BB000814BB000814BB000826
:104710001CBB0008704700BF704700BF704700BF58
:10472000704700BF024B13B1024800F005B8704754
:1047300000000000FD740008002301461A461846D8
:1047400002F0A2BF2DE9F84306460820894602F090
:10475000E9FE0546DFF89880304600F001FCD8F805
:1047600008305F6827F00307A7F11104A4EB0904E0
:104770002C44B4FBF5F4013C05FB04F4A54208DC31
:104780000021304602F0A8FED8F808303B44984299
:1047900005D0304600F0EAFB0020BDE8F883304643
:1047A000614202F099FE01300FD0124AD8F8083069
:1047B0003F1B47F001075F60136830461B1B136007
:1047C00000F0D4FB0120BDE8F8830021304602F060
:1047D00083FED8F80820831A0F2BDADD43F001039B
:1047E0005360054B03491B68C01A0860D1E700BF3E
:1047F00070010020A80E00206401002000295AD07A
:10480000F8B50C46074600F0ABFB54F804CC724DEB
:10481000A4F108022CF00103D118A8684E68884260
:1048200026F003060CF0010E7CD04E60881940681B
:1048300000F00100BEF1000F2ED154F8084C05F134
:10484000080C121B23449468644560D0D2F80CE035
:10485000C4F80CE0CEF8084000287DD043F00100F9
:1048600050600B60B3F5007F2ED25809D9080123A0
:1048700083406868013103436B6055F8310005EBF4
:10488000C103083BC2E9020345F83120C260384643
:10489000BDE8F84000F06ABB70B9334405F1080C7C
:1048A000886843F0010460456ED0C968C1608860C3
:1048B0005460D350D6E770474CF00101B3F5007F48
:1048C00044F8041CD350D0D3B3F5206F4FEA5321E2
:1048D00044D2990901F1390001F13804C100681886
:1048E00069580838884203D155E08968884204D065
:1048F0004C6824F003049C42F7D8C868C2E902104F
:1049000082603846BDE8F840CA6000F02FBB80BB2B
:104910001E44D1E90213CB60996046F00103536055
:104920009651B4E71E44BEF1000F07D154F8083C7D
:10493000D21A1E44D2E90213CB60996046F00103FB
:104940005360264BAA601B68B342A0D8244B38465C
:104950001968FFF7F7FE9AE73344A1E714290DD948
:1049600054291FD8190B01F16F0001F16E04C10029
:10497000B5E743F0010050600B6088E701F15C008F
:1049800001F15B04C100AAE7C5E90422C2E902CC37
:104990005460D3507BE70123A410A3406C682343E9
:1049A0006B60ABE7B1F5AA7F06D8D90B01F17800AF
:1049B00001F17704C10092E740F25450814206D8D9
:1049C000990C01F17D0001F17C04C10087E74FF4EF
:1049D0007E717E2483E700BF700100206801002003
:1049E000D80E00202DE9F04F01F10B05162D0646DB
:1049F00083B024D8102900F2AE8000F0B1FA10255F
:104A000018234FF0020CC04F3B445C68A3F108022E
:104A1000944200F05F8130466368E268A16823F049
:104A20000303CA60234491605A68083442F00102CB
:104A30005A6000F09BFA204603B0BDE8F08F35F0D5
:104A4000070500F18880A94200F2858000F088FA0D
:104A5000B5F5FC7FC0F0B1816B0A00F08380042BB8
:104A600000F26E81AB0903F1390C03F1380E4FEA05
:104A7000CC00A54F384444680838A04207D10DE067
:104A8000002AE16880F22081884207D00C466368E2
:104A900023F003035A1B0F2AF2DDF446DFF86C8281
:104AA0003C69444500F0FD80636823F00309A9EBED
:104AB00005030F2B00F38681002BC7E9048880F2E1
:104AC0007081B9F5007FD7F804E080F00A810123F6
:104AD0004FEAD9014FEA5919194403FA09F357F873
:104AE00031204EEA030E07EBC103083BA260E360EE
:104AF000C7F804E047F83140D46001204FEAAC0326
:104B00009840704535D810EA0E0F07D12CF0030CF1
:104B1000400010EA0E0F0CF1040CF9D007EBCC0AA0
:104B2000D646E146DEF80C300BE059681C4621F011
:104B300003014A1B0F2ADB6800F30F81002A80F271
:104B400023819E45F1D109F1010919F0030F0EF1FE
:104B5000080EE7D160E10C2333600024204603B047
:104B6000BDE8F08F4FF400704FF0400C4FF03F0E57
:104B70007FE7BC68636823F00309A94504D3A9EB68
:104B800005030F2B00F39080614B08201B6803F195
:104B9000100804EB0903009302F0C4FC5D4A83464D
:104BA0001368A844013305D008F1FF38804443421C
:104BB00003EA08084146304602F08EFCB0F1FF3FA0
:104BC0008246544A00F0198104EB0903834200F243
:104BD0001281514B0BF1FF3C18684044186000F003
:104BE00068811168013100F0708104EB0902AAEBC1
:104BF000020202441A601AF00702CDE9002300F015
:104C00002A81C2F108029244D04408EA0C015A44B5
:104C1000521A02EA0C0B5946304602F05DFC421C67
:104C2000019B00F06F81A0EB0A0000EB0B081868F5
:104C300048F001025844BC42C7F808A01860CAF8FE
:104C4000042017D0B9F10F0F40F242814FF0050C4C
:104C50006168A9F10C0222F0070201F00101114381
:104C600061600F2A04EB0201C1E901CC00F252811C
:104C7000DAF804205446294B1968814238BF18607D
:104C8000274B1968814238BF186022F00308A845F5
:104C9000A8EB050301D30F2B06DC304600F066F9C4
:104CA0005BE7D7F804E028E7621943F0010345F019
:104CB000010565603046BA600834536000F056F96B
:104CC000204603B0BDE8F08FA2683046D16023448F
:104CD0008A60A9E6DC68A3427FF49DAE0CF1020C69
:104CE000DCE6B9F5206F4FEA59227DD3142A00F291
:104CF000C58002F15C03DB005B32F918FB58083910
:104D0000994212D19EE000BF70010020780100207E
:104D1000D80E002064010020A80E0020D40E002030
:104D2000D00E00209B68994204D05A6822F00302FA
:104D30004A45F7D8D968C4E902318C60DC60DCE60A
:104D4000142B5DD9542B00F2A2802B0B03F16F0CB6
:104D500003F16E0E4FEACC008BE6D4F808C0304663
:104D6000661945F001056560CCF80C30C3F808C041
:104D700042F00103C7E90466C6E902887360625025
:104D800000F0F4F80834E9E621444A68304642F07D
:104D900001024A6054F8082FD3609A6000F0E6F8E8
:104DA000DCE6A144D9F80430304643F00103C9F8E9
:104DB000043000F0DBF80834D0E64FEAD50C05F1FA
:104DC000080320E6621943F0010145F00105656022
:104DD0003046C7E90422C2E90288516044F809302C
:104DE00000F0C4F80834B9E64FEA991202F1390329
:104DF000DB00383281E7BC4254D0BC68626844E7CB
:104E000003F15C0C03F15B0E4FEACC0031E65AF87B
:104E10000839534540F09F801CF0030F0CF1FF3C14
:104E2000F5D17B6823EA00037B60400098423FF69F
:104E3000A0AE18B99DE6400009F104091842FAD065
:104E4000CC466BE60120921000FA02F24EEA020E06
:104E5000C7F804E06FE70AEB080202EA0C02ABEBCA
:104E6000020202EA0C0B5946304602F035FB431CA5
:104E7000019B7FF4D8AEDDF800B0D8E6542A2BD8D9
:104E80004FEA193202F16F03DB006E3235E7B3F5FA
:104E9000AA7F2BD8EB0B03F1780C03F1770E4FEAC6
:104EA000CC00E6E52D4B0BF1FF3C18684044186040
:104EB00097E61AEA0C0F7FF494AED7F808A0C8441E
:104EC00048F00102CAF80420D4E6C2F800A092E635
:104ED0000123CAF80430E0E6B2F5AA7F25D84FEAEC
:104EE000D93202F17803DB00773206E740F2545200
:104EF000934225D8AB0C03F17D0C03F17C0E4FEAF5
:104F0000CC00B6E5009A4FF0000B083A9044A8EBAD
:104F10000A088CE6304604F108010093FFF76EFCA6
:104F2000009BD7F808A01868A2E640F254539A42B2
:104F30000DD84FEA994202F17D03DB007C32DCE6BA
:104F40004FF47E704FF07F0C4FF07E0E91E54FF4E2
:104F50007E737E22D1E67B6867E700BFA80E002043
:104F60000148FFF7DBBB00BF980E00200148FFF7A8
:104F7000D7BB00BF980E00202DE9F04FDBB00C46E8
:104F800015460A910E93834602F0A2FA036818466A
:104F9000179302F015FB0822169000212AA8FFF7AC
:104FA000E9FAA3891B0603D52369002B01F0A98028
:104FB000002300249E46CDE92F33002331AACDE9FA
:104FC00012342F461446CDE91AEE2E92CDF860E049
:104FD000CDF864E0CDF820E0CDF844E03D466E4BDE
:104FE000D3F8E46002F06EFA0DF1A80C03462A46ED
:104FF000584626A9CDF800C0B047002800F09F8091
:10500000C0F29580269B252B01D00544E7E7B5EB40
:105010000708064640F0978000224FF0FF33924683
:10502000079301352B788DF88F2009929946013529
:10503000A9F120035A2B00F2B180DFE813F03A0205
:10504000AF00AF003602AF00AF00AF001902AF00F3
:10505000AF006A00F301AF00EF01FC01AF00F801FF
:105060005B005B005B005B005B005B005B005B0068
:105070005B00AF00AF00AF00AF00AF00AF00AF000C
:105080002301AF007901F702230123012301AF00BF
:10509000AF00AF00AF00F302AF00AF004402AF00BB
:1050A000AF00AF00B601AF009902AF00AF00B70785
:1050B000AF00AF00AF00AF00AF00AF00AF00AF0078
:1050C0002301AF00790164012301230123011803A7
:1050D00064017400AF003103AF00220366033B0399
:1050E0007400AF00B6017200D202AF00AF00290811
:1050F000AF0072000022A9F1300315F8019B02EB0A
:10510000820203EB4202A9F13003092BF5D909927F
:105110008EE70E9B53F8042B002A09920E93C0F2DF
:105120007A812B7882E72B784AF0200A7EE70822E2
:1051300000212AA8FFF71EFA012005444FE7B5EB2E
:105140000708064610D02F9A309B01324344072AA5
:10515000C4E9007830932F9215DC0834089B43444F
:105160000893002E7FF458AF309B002B41F05883FA
:105170000A9B9B8903F04003002B41F0F0870898BD
:105180005BB0BDE8F08F58460A992EAA02F01CF8D1
:105190000028EDD131ACE1E778050020B9F1000F2E
:1051A000E2D0002301228DF804910C9241AF8DF8DA
:1051B0008F300B93CDE90623CDE90F331493309E46
:1051C0001AF08403314600F0E2809DF88F20FAB196
:1051D0004FF000082F980122013001366260072845
:1051E0000DF18F02CDE92F06226000F3FB83083416
:1051F000B8F1000F0CD02F98022201300236626005
:10520000072824AACDE92F06226000F3DF830834A3
:10521000802B00F0E482079B0C9AA3EB0208B8F104
:10522000000F00F324831AF4807F40F081820C9BEE
:1052300027601E4463602F9B30960133072B2F930A
:1052400000F36D8308341AF0040F05D0099B069A09
:105250009F1A002F00F3D483DDE9083206998A42B1
:10526000ACBF9B185B180893002E40F038830023D6
:105270002F930B9B1BB158460B99FFF7BFFA2F4694
:1052800031ACABE60E9B073323F00701F1E80223B4
:10529000CDE91223139B1E9223F000431F930E911E
:1052A0004FF0FF32DDE91E01AE4BFBF749FF00284E
:1052B00040F02186DDE91E014FF0FF32A94BFBF7DC
:1052C00021FF0646002840F01686DDE91201002283
:1052D00000232AF0800AFBF70BFF002841F04B81E6
:1052E0009DF88F30B9F1470FCCBF9F4F9F4F002BD8
:1052F00041F021860322CDE90F330B930C920793E3
:10530000149306925BE71AF0200F40F0A5850E9AE1
:105310001AF0100F52F8046B41F026871AF0400F74
:105320000E9201F01C8146F3C038434636B28EE13E
:105330000E9BB9F1430F03F1040603D01AF0100FCE
:1053400000F0B886082200212CA8FFF713F90E9A66
:1053500041AF2CAB39465846126803F07FFE034636
:1053600001330C9001F0F6860C9B23EAE37306935D
:1053700000230E96309ECDE90F338DF88F300B93BE
:10538000079314931AF0840331467FF41EAF099AF1
:105390000698A2EB0008B8F1000F00F32B849DF8EB
:1053A0008F20002A3FF437AF12E70023DDF8388062
:1053B0008DF88F3058F8047B002F00F09186B9F1FA
:1053C000530F01F012801AF010030F9341F00D807B
:1053D000079B002BC1F236821A4638460F9902F01D
:1053E000AFF89DF88F300B90002801F08F850B9A55
:1053F000CDF83880D21B0C9222EAE272069213B1E9
:105400001346013306930F9B4FF0730907931493D0
:1054100010930B93D3E6099B5B4209932B784AF0D8
:10542000040A03E62B238DF88F302B78FEE52B78CA
:105430004AF0800AFAE5294611F8019BB9F12A0FD2
:1054400001F07586A9F13003092B98BF002201F203
:105450002C8411F8019B02EB820203EB4202A9F1BA
:105460003003092BF5D942EAE2730D460793DFE5D5
:10547000584602F02DF843681846199302F0A0F838
:105480001B900646584602F023F881682B781A9143
:10549000002E3FF4CBAD00293FF4C8AD0A78002AB6
:1054A0003FF4C4AD4AF4806AC0E52B784AF0010AA3
:1054B000BCE59DF88F202B78002A7FF4B7AD202221
:1054C0008DF88F20B2E51AF0200F4AF0100000F09E
:1054D000BB840E9B073323F007031A46596852F822
:1054E000083B0E9200228DF88F20079A002A18DBC5
:1054F00053EA010220F4906A15D1079A9AB910F084
:1055000001031A46069300F04B8730238DF867316C
:10551000079B0C92CDE90F3314930B930DF2671791
:105520004DE620F4806A5AAF03F00702DB0843EA35
:105530004173C908303253EA0106384607F8012D95
:10554000F2D11AF001010F9140F02383079A5AAB70
:10555000DB1B9A42B8BF1A460C9306921491109125
:105560000B912CE6FFFFEF7FE4B60008E0B60008E1
:105570001AF0200F4AF0100138D10E9B1A1D4FF07F
:1055800000080E9B07981B6840451E468DF88F80CB
:10559000C0F2808521F0800A002B00F089840E92F1
:1055A0000A2E78F1000380F0B78306F13003DBB2F6
:1055B0008DF86731079B0DF26717012BB8BF0123E8
:1055C000069301230C939DF88F30002B01F0A985E1
:1055D000069B013306930023CDE90F330B931493FD
:1055E000EDE51AF0200F00F04C8451460E9B073376
:1055F00023F007031A46D3F8048000238DF88F3078
:10560000079B52F8086B002B0E92C0F2448556EAB5
:10561000080321F0800AC3D1079B002B00F04D84C2
:105620000026C2E72B784AF0080AFFE41AF0200FA0
:105630004AF0100100F01A840E9B8A46073323F0CB
:1056400007031A465B6852F8086B98460E92002BC7
:10565000C0F25183079A002AA2DB56EA08032AF017
:10566000800A9DD1002A01F059803023A0E72B78D1
:10567000682B03BF6B784AF4007A01354AF0400A80
:10568000D4E40E9A1AF0200F02F1040300F01E84F5
:10569000126808991160C91751602F460E939DE456
:1056A0002B786C2B03BF6B784AF0200A01354AF047
:1056B000100ABBE4002647F630030E9A079F52F803
:1056C000041BB742ADF890308DF88F600B46C0F2E6
:1056D000E5842AF0800040F0020A002940F0D586D7
:1056E000002F01F0228030238DF8673101230697C7
:1056F0004FF078098C46CDE90B1310910E9214915E
:105700000F910DF2671700F0A6BC1AF0200F40F0C1
:10571000EF830E9A1AF0100152F8043B41F02A85EB
:105720001AF0400000F00B8750460E929BB2D9E66B
:10573000B9F1650F40F3FD80DDE91201002200237D
:10574000FBF7CCFC002800F0A081012363602F9BB5
:10575000B24A01330136072B30962F93226000F3B3
:1057600038860834259B119A934280F26483169BF5
:10577000179A1E44C4E900232F9B30960133072B50
:105780002F9300F3A1840834119B5F1E002F7FF735
:105790005AAD102F2F9B41F35384A14932464FF04D
:1057A00010080E46DDF82890159104E00834103FEB
:1057B000102F40F3A98001331032072BC4E9006891
:1057C000CDE92F32F2DD494658462EAA01F0FCFC05
:1057D000002840F08C80DDE92F3231ACE7E7099BEF
:1057E000069AA3EB0208B8F1000F7FF714ADB8F1E9
:1057F000100F2F9A41F32C83DFF824C22146304644
:1058000010232E4664460A9DCDF854C006E0A8F148
:105810001008B8F1100F01F1080118DD0132103045
:10582000072AC1E90043CDE92F20F0DD294658467B
:105830002EAA01F0C9FC002859D1DDE92F20A8F1DA
:105840001008B8F1100F4FF0100331A9E6DC35460F
:105850000C4606460132159B4644072ACDE92F2601
:105860002360C4F8048000F3FE850834D3E46C4B55
:10587000B8F1100F2F9A159324DD214610230A9CAE
:1058800006E0A8F11008B8F1100F01F1080118DDC9
:10589000013263481036072AC1E90003CDE92F26FB
:1058A000EFDD214658462EAA01F08EFCF8B9DDE95D
:1058B0002F26A8F11008B8F1100F4FF0100331A9EE
:1058C000E6DC0C460132159B4644072ACDE92F261B
:1058D0002360C4F8048000F302820834A3E458462D
:1058E0000A992EAA01F070FC00283FF4C0AC0B9B73
:1058F000002B3FF43DAC58460B99FEF77FFF0A9B07
:105900009B8903F0400337E41646159A01333E4461
:10591000072B22606760CDE92F367FF793AC58469E
:105920000A992EAA01F050FC0028E0D1309E31AC3B
:1059300089E42F9B013603F10108119B04F108094A
:10594000012B40F33D810123B8F1070FCDE92F86EC
:105950002760636000F36282169B08F10108179AC2
:105960001E44B8F1070FC9E90023CDE92F8600F3E3
:10597000488209F10809119B0022DDE912015C1E31
:105980000023FBF7ABFB002840F07E8108F1010803
:1059900001372644B8F1070FCDE92F86C9F800700A
:1059A000C9F8044000F3198109F10809189A08F1AF
:1059B00001031644C9F80420072B28AACDE92F3685
:1059C000C9F80020ABDC09F108043CE458460A9908
:1059D0002EAA159301F0F8FB002888D1309E159B64
:1059E00031AC15E458460A992EAA159301F0ECFB48
:1059F00000287FF47CAF309E159B31ACFFF7F8BBDD
:105A0000102F2F9B41F39481064AAA464FF01008AD
:105A10001546DDF8289015920BE000BF20B700086E
:105A2000C8B80008D8B80008103F102F04F10804C7
:105A300015DD01331036072BC4E90058CDE92F36A8
:105A4000F2DD494658462EAA01F0BEFB00287FF43D
:105A50004EAFDDE92F36103F102F31ACE9DC554653
:105A60000133159A3E44072BC4E90027CDE92F36B0
:105A70007FF7F2AB58460A992EAA01F0A5FB002841
:105A80007FF435AF309EFFF7E7BB2599002940F33F
:105A90004C84DDF83C90119B9945A8BF9946B9F11B
:105AA000000F0ADD2F9B4E440133072BC4E9007918
:105AB00030962F9300F38C870834DDF83C80B9F1E1
:105AC000000FA8BFA8EB0908B8F1000F00F3288366
:105AD0000F9B1AF4806F3B4440F04B83259A119939
